:020000040800F2
:10000000008000208D020008050300080503000899
:1000100005030008050300080503000805030008A0
:100020000503000805030008050300080503000890
:100030000503000805030008050300080503000880
:100040000503000805030008050300080503000870
:100050000503000805030008050300080503000860
:100060000503000805030008050300080503000850
:100070000503000805030008050300080503000840
:100080000503000805030008050300080503000830
:100090000503000805030008050300080503000820
:1000A0000503000805030008050300080503000810
:1000B0000503000805030008050300080503000800
:1000C00005030008050300080503000805030008F0
:1000D00005030008050300080503000805030008E0
:1000E00005030008050300080503000805030008D0
:1000F00005030008050300080503000805030008C0
:1001000005030008050300080503000805030008AF
:10011000050300080503000805030008050300089F
:10012000050300080503000805030008050300088F
:10013000050300080503000805030008050300087F
:10014000050300080503000805030008050300086F
:10015000050300080503000805030008050300085F
:10016000050300080503000805030008050300084F
:10017000050300080503000805030008050300083F
:10018000050300080503000805030008050300082F
:10019000050300080503000805030008050300081F
:1001A000050300080503000805030008050300080F
:1001B00005030008050300080503000805030008FF
:1001C00005030008050300080503000805030008EF
:1001D000050300080503000880B400AF294B1B6825
:1001E000284A23F08073136000BF264B1B6803F07E
:1001F0000073002BF9D1244B1B68234A63F00F03D3
:100200001360214B1B68204A43F0070313601E4B09
:100210001B681D4A43F4807313601A4BDB68194A4C
:1002200043F00203D360174BDB68164A23F4FE4306
:10023000D360144BDB68134A43F4AA43D360114BD9
:10024000DB68104A23F0F003D3600E4BDB680D4AE5
:1002500043F04003D3600B4BDB680A4A43F08073E2
:10026000D360084B1B68074A43F080731360054B4B
:100270009B68044A43F00303936000BFBD4680BC03
:10028000704700BF001002400020024080B584B0DB
:1002900000AFFFF7A1FF164BFB60164BBB60164A81
:1002A000144BD31A7B6007E0FA68531CFB60BB68F1
:1002B000591CB96012781A707B685A1E7A60002B3C
:1002C000F2D10E4BBB600E4A0C4BD31A7B6004E09C
:1002D000BB685A1CBA6000221A707B685A1E7A608A
:1002E000002BF5D100F022F800BF1037BD4680BDCD
:1002F00094030008000000200000002000000020FF
:100300000000002080B400AFFEE700BF80B483B0DF
:1003100000AF786000BF7B685A1E7A60002BFAD16C
:1003200000BF00BF0C37BD4680BC704780B500AF32
:10033000164BDB6C154A43F00103D3644FF0904336
:100340001B684FF0904223F4003313604FF090434A
:100350001B684FF0904243F4803313604FF090439A
:100360005B694FF0904243F4807353610848FFF794
:10037000CDFF4FF090435B694FF0904223F48073C0
:1003800053610348FFF7C2FFE8E700BF00100240D7
:0403900040420F00D8
:0400000508000000EF
:00000001FF
